{
  "contractName": "Legit",
  "abi": [
    {
      "inputs": [],
      "stateMutability": "nonpayable",
      "type": "constructor"
    },
    {
      "inputs": [
        {
          "internalType": "address",
          "name": "",
          "type": "address"
        },
        {
          "internalType": "uint256",
          "name": "",
          "type": "uint256"
        }
      ],
      "name": "notas",
      "outputs": [
        {
          "internalType": "string",
          "name": "",
          "type": "string"
        }
      ],
      "stateMutability": "view",
      "type": "function",
      "constant": true
    },
    {
      "inputs": [
        {
          "internalType": "string",
          "name": "_nota",
          "type": "string"
        }
      ],
      "name": "escribir",
      "outputs": [],
      "stateMutability": "nonpayable",
      "type": "function"
    },
    {
      "inputs": [],
      "name": "leer",
      "outputs": [
        {
          "internalType": "string[]",
          "name": "",
          "type": "string[]"
        }
      ],
      "stateMutability": "view",
      "type": "function",
      "constant": true
    },
    {
      "inputs": [],
      "name": "total",
      "outputs": [
        {
          "internalType": "uint256",
          "name": "",
          "type": "uint256"
        }
      ],
      "stateMutability": "view",
      "type": "function",
      "constant": true
    }
  ],
  "bytecode": "0x608060405234801561001057600080fd5b50610843806100206000396000f3fe608060405234801561001057600080fd5b506004361061004c5760003560e01c80632ddbd13a146100515780638c6cedbf1461006f5780638eb50b321461009f578063b38f9adf146100bb575b600080fd5b6100596100d9565b6040516100669190610676565b60405180910390f35b610089600480360361008491908101906104ab565b610122565b6040516100969190610654565b60405180910390f35b6100b960048036036100b491908101906104e7565b6101e8565b005b6100c3610263565b6040516100d09190610632565b60405180910390f35b60008060003373ffffffffffffffffffffffffffffffffffffffff1673ffffffffffffffffffffffffffffffffffffffff16815260200190815260200160002080549050905090565b6000602052816000526040600020818154811061013b57fe5b90600052602060002001600091509150508054600181600116156101000203166002900480601f0160208091040260200160405190810160405280929190818152602001828054600181600116156101000203166002900480156101e05780601f106101b5576101008083540402835291602001916101e0565b820191906000526020600020905b8154815290600101906020018083116101c357829003601f168201915b505050505081565b6000803373ffffffffffffffffffffffffffffffffffffffff1673ffffffffffffffffffffffffffffffffffffffff1681526020019081526020016000208190806001815401808255809150506001900390600052602060002001600090919091909150908051906020019061025f929190610388565b5050565b60606000803373ffffffffffffffffffffffffffffffffffffffff1673ffffffffffffffffffffffffffffffffffffffff168152602001908152602001600020805480602002602001604051908101604052809291908181526020016000905b8282101561037f578382906000526020600020018054600181600116156101000203166002900480601f01602080910402602001604051908101604052809291908181526020018280546001816001161561010002031660029004801561036b5780601f106103405761010080835404028352916020019161036b565b820191906000526020600020905b81548152906001019060200180831161034e57829003601f168201915b5050505050815260200190600101906102c3565b50505050905090565b828054600181600116156101000203166002900490600052602060002090601f016020900481019282601f106103c957805160ff19168380011785556103f7565b828001600101855582156103f7579182015b828111156103f65782518255916020019190600101906103db565b5b5090506104049190610408565b5090565b61042a91905b8082111561042657600081600090555060010161040e565b5090565b90565b60008135905061043c816107df565b92915050565b600082601f83011261045357600080fd5b8135610466610461826106be565b610691565b9150808252602083016020830185838301111561048257600080fd5b61048d83828461078c565b50505092915050565b6000813590506104a5816107f6565b92915050565b600080604083850312156104be57600080fd5b60006104cc8582860161042d565b92505060206104dd85828601610496565b9150509250929050565b6000602082840312156104f957600080fd5b600082013567ffffffffffffffff81111561051357600080fd5b61051f84828501610442565b91505092915050565b600061053483836105b1565b905092915050565b6000610547826106fa565b610551818561071d565b935083602082028501610563856106ea565b8060005b8581101561059f57848403895281516105808582610528565b945061058b83610710565b925060208a01995050600181019050610567565b50829750879550505050505092915050565b60006105bc82610705565b6105c6818561072e565b93506105d681856020860161079b565b6105df816107ce565b840191505092915050565b60006105f582610705565b6105ff818561073f565b935061060f81856020860161079b565b610618816107ce565b840191505092915050565b61062c81610782565b82525050565b6000602082019050818103600083015261064c818461053c565b905092915050565b6000602082019050818103600083015261066e81846105ea565b905092915050565b600060208201905061068b6000830184610623565b92915050565b6000604051905081810181811067ffffffffffffffff821117156106b457600080fd5b8060405250919050565b600067ffffffffffffffff8211156106d557600080fd5b601f19601f8301169050602081019050919050565b6000819050602082019050919050565b600081519050919050565b600081519050919050565b6000602082019050919050565b600082825260208201905092915050565b600082825260208201905092915050565b600082825260208201905092915050565b600061075b82610762565b9050919050565b600073ffffffffffffffffffffffffffffffffffffffff82169050919050565b6000819050919050565b82818337600083830152505050565b60005b838110156107b957808201518184015260208101905061079e565b838111156107c8576000848401525b50505050565b6000601f19601f8301169050919050565b6107e881610750565b81146107f357600080fd5b50565b6107ff81610782565b811461080a57600080fd5b5056fea2646970667358221220f838e3887bbb255d0948da049734a649064c84b4e9744c1fd3e8132df1c51cf164736f6c63430006010033",
  "source": "//SPDX-License-Identifier: MIT\npragma solidity >=0.5.0 <0.7.0;\npragma experimental ABIEncoderV2;\n\ncontract Legit {\n    \n    \n    mapping(address => string[]) public notas;\n\n    constructor() public {\n        \n    }\n\n    function escribir(string memory _nota) public {\n        notas[msg.sender].push(_nota);\n    }\n\n    function leer() public view returns (string[] memory){\n        return notas[msg.sender];\n    }\n\n    function total() public view returns(uint) {\n        return notas[msg.sender].length;\n    }\n}",
  "sourcePath": "/home/carlos/contratos/legit-contract-insert-document/contracts/Legit.sol",
  "compiler": {
    "name": "solc",
    "version": "0.6.1+commit.e6f7d5a4.Emscripten.clang"
  },
  "schemaVersion": "3.2.2",
  "updatedAt": "2020-07-22T15:31:17.793Z",
  "networkType": "ethereum",
  "devdoc": {
    "methods": {}
  },
  "userdoc": {
    "methods": {}
  }
}