{
  "contractName": "LegitContractV2",
  "abi": [
    {
      "inputs": [],
      "stateMutability": "nonpayable",
      "type": "constructor"
    },
    {
      "inputs": [
        {
          "internalType": "string",
          "name": "_id_cert",
          "type": "string"
        },
        {
          "internalType": "string",
          "name": "_user_name",
          "type": "string"
        },
        {
          "internalType": "string",
          "name": "_user_email",
          "type": "string"
        },
        {
          "internalType": "string",
          "name": "_fecha",
          "type": "string"
        },
        {
          "internalType": "string",
          "name": "_cert_name",
          "type": "string"
        },
        {
          "internalType": "string",
          "name": "_n_doc",
          "type": "string"
        },
        {
          "internalType": "string[]",
          "name": "_docs_hash",
          "type": "string[]"
        },
        {
          "internalType": "string[]",
          "name": "_docs_nombre",
          "type": "string[]"
        }
      ],
      "name": "certifica",
      "outputs": [],
      "stateMutability": "nonpayable",
      "type": "function"
    },
    {
      "inputs": [
        {
          "internalType": "string",
          "name": "_document_hash",
          "type": "string"
        }
      ],
      "name": "valida",
      "outputs": [
        {
          "internalType": "bool",
          "name": "",
          "type": "bool"
        }
      ],
      "stateMutability": "view",
      "type": "function",
      "constant": true
    },
    {
      "inputs": [
        {
          "internalType": "string",
          "name": "_user_email",
          "type": "string"
        }
      ],
      "name": "busca",
      "outputs": [
        {
          "components": [
            {
              "internalType": "string",
              "name": "id_certificacion",
              "type": "string"
            },
            {
              "internalType": "string",
              "name": "nombre_responsable",
              "type": "string"
            },
            {
              "internalType": "string",
              "name": "nombre_certificacion",
              "type": "string"
            },
            {
              "internalType": "string",
              "name": "fecha",
              "type": "string"
            },
            {
              "internalType": "string",
              "name": "cantidad_documentos",
              "type": "string"
            },
            {
              "internalType": "string[]",
              "name": "documentos_hash",
              "type": "string[]"
            },
            {
              "internalType": "string[]",
              "name": "documentos_nombre",
              "type": "string[]"
            }
          ],
          "internalType": "struct LegitContractV2.Certificacion[]",
          "name": "",
          "type": "tuple[]"
        }
      ],
      "stateMutability": "view",
      "type": "function",
      "constant": true
    }
  ],
  "bytecode": "0x608060405234801561001057600080fd5b5033600260006101000a81548173ffffffffffffffffffffffffffffffffffffffff021916908373ffffffffffffffffffffffffffffffffffffffff1602179055506112fb806100616000396000f3fe608060405234801561001057600080fd5b50600436106100415760003560e01c806321b81626146100465780635a16501a14610076578063df0d9701146100a6575b600080fd5b610060600480360361005b9190810190610c03565b6100c2565b60405161006d91906110c3565b60405180910390f35b610090600480360361008b9190810190610c03565b61063b565b60405161009d91906110e5565b60405180910390f35b6100c060048036036100bb9190810190610c44565b6106dc565b005b60606000826040516100d49190611095565b9081526020016040518091039020805480602002602001604051908101604052809291908181526020016000905b8282101561063057838290600052602060002090600702016040518060e0016040529081600082018054600181600116156101000203166002900480601f0160208091040260200160405190810160405280929190818152602001828054600181600116156101000203166002900480156101be5780601f10610193576101008083540402835291602001916101be565b820191906000526020600020905b8154815290600101906020018083116101a157829003601f168201915b50505050508152602001600182018054600181600116156101000203166002900480601f0160208091040260200160405190810160405280929190818152602001828054600181600116156101000203166002900480156102605780601f1061023557610100808354040283529160200191610260565b820191906000526020600020905b81548152906001019060200180831161024357829003601f168201915b50505050508152602001600282018054600181600116156101000203166002900480601f0160208091040260200160405190810160405280929190818152602001828054600181600116156101000203166002900480156103025780601f106102d757610100808354040283529160200191610302565b820191906000526020600020905b8154815290600101906020018083116102e557829003601f168201915b50505050508152602001600382018054600181600116156101000203166002900480601f0160208091040260200160405190810160405280929190818152602001828054600181600116156101000203166002900480156103a45780601f10610379576101008083540402835291602001916103a4565b820191906000526020600020905b81548152906001019060200180831161038757829003601f168201915b50505050508152602001600482018054600181600116156101000203166002900480601f0160208091040260200160405190810160405280929190818152602001828054600181600116156101000203166002900480156104465780601f1061041b57610100808354040283529160200191610446565b820191906000526020600020905b81548152906001019060200180831161042957829003601f168201915b5050505050815260200160058201805480602002602001604051908101604052809291908181526020016000905b82821015610530578382906000526020600020018054600181600116156101000203166002900480601f01602080910402602001604051908101604052809291908181526020018280546001816001161561010002031660029004801561051c5780601f106104f15761010080835404028352916020019161051c565b820191906000526020600020905b8154815290600101906020018083116104ff57829003601f168201915b505050505081526020019060010190610474565b50505050815260200160068201805480602002602001604051908101604052809291908181526020016000905b82821015610619578382906000526020600020018054600181600116156101000203166002900480601f0160208091040260200160405190810160405280929190818152602001828054600181600116156101000203166002900480156106055780601f106105da57610100808354040283529160200191610605565b820191906000526020600020905b8154815290600101906020018083116105e857829003601f168201915b50505050508152602001906001019061055d565b505050508152505081526020019060010190610102565b505050509050919050565b600080600090505b6001805490508110156106d157826040516020016106619190611095565b604051602081830303815290604052805190602001206001828154811061068457fe5b9060005260206000200160405160200161069e91906110ac565b6040516020818303038152906040528051906020012014156106c45760019150506106d7565b8080600101915050610643565b50600090505b919050565b6060829050606082905060008090505b825181101561075157600183828151811061070357fe5b60200260200101519080600181540180825580915050600190039060005260206000200160009091909190915090805190602001906107439291906108b1565b5080806001019150506106ec565b5061075a610931565b6040518060e001604052808c81526020018b815260200188815260200189815260200187815260200184815260200183815250905060008960405161079f9190611095565b908152602001604051809103902081908060018154018082558091505060019003906000526020600020906007020160009091909190915060008201518160000190805190602001906107f392919061096e565b50602082015181600101908051906020019061081092919061096e565b50604082015181600201908051906020019061082d92919061096e565b50606082015181600301908051906020019061084a92919061096e565b50608082015181600401908051906020019061086792919061096e565b5060a08201518160050190805190602001906108849291906109ee565b5060c08201518160060190805190602001906108a19291906109ee565b5050505050505050505050505050565b828054600181600116156101000203166002900490600052602060002090601f016020900481019282601f106108f257805160ff1916838001178555610920565b82800160010185558215610920579182015b8281111561091f578251825591602001919060010190610904565b5b50905061092d9190610a4e565b5090565b6040518060e00160405280606081526020016060815260200160608152602001606081526020016060815260200160608152602001606081525090565b828054600181600116156101000203166002900490600052602060002090601f016020900481019282601f106109af57805160ff19168380011785556109dd565b828001600101855582156109dd579182015b828111156109dc5782518255916020019190600101906109c1565b5b5090506109ea9190610a4e565b5090565b828054828255906000526020600020908101928215610a3d579160200282015b82811115610a3c578251829080519060200190610a2c92919061096e565b5091602001919060010190610a0e565b5b509050610a4a9190610a73565b5090565b610a7091905b80821115610a6c576000816000905550600101610a54565b5090565b90565b610a9c91905b80821115610a985760008181610a8f9190610a9f565b50600101610a79565b5090565b90565b50805460018160011615610100020316600290046000825580601f10610ac55750610ae4565b601f016020900490600052602060002090810190610ae39190610a4e565b5b50565b600082601f830112610af857600080fd5b8135610b0b610b068261112d565b611100565b9150818183526020840193506020810190508360005b83811015610b515781358601610b378882610b5b565b845260208401935060208301925050600181019050610b21565b5050505092915050565b600082601f830112610b6c57600080fd5b8135610b7f610b7a82611155565b611100565b91508082526020830160208301858383011115610b9b57600080fd5b610ba6838284611272565b50505092915050565b600082601f830112610bc057600080fd5b8135610bd3610bce82611181565b611100565b91508082526020830160208301858383011115610bef57600080fd5b610bfa838284611272565b50505092915050565b600060208284031215610c1557600080fd5b600082013567ffffffffffffffff811115610c2f57600080fd5b610c3b84828501610baf565b91505092915050565b600080600080600080600080610100898b031215610c6157600080fd5b600089013567ffffffffffffffff811115610c7b57600080fd5b610c878b828c01610baf565b985050602089013567ffffffffffffffff811115610ca457600080fd5b610cb08b828c01610baf565b975050604089013567ffffffffffffffff811115610ccd57600080fd5b610cd98b828c01610baf565b965050606089013567ffffffffffffffff811115610cf657600080fd5b610d028b828c01610baf565b955050608089013567ffffffffffffffff811115610d1f57600080fd5b610d2b8b828c01610baf565b94505060a089013567ffffffffffffffff811115610d4857600080fd5b610d548b828c01610baf565b93505060c089013567ffffffffffffffff811115610d7157600080fd5b610d7d8b828c01610ae7565b92505060e089013567ffffffffffffffff811115610d9a57600080fd5b610da68b828c01610ae7565b9150509295985092959890939650565b6000610dc28383610f08565b905092915050565b6000610dd68383610fcf565b905092915050565b6000610de9826111e2565b610df38185611228565b935083602082028501610e05856111ad565b8060005b85811015610e415784840389528151610e228582610db6565b9450610e2d8361120e565b925060208a01995050600181019050610e09565b50829750879550505050505092915050565b6000610e5e826111ed565b610e688185611239565b935083602082028501610e7a856111bd565b8060005b85811015610eb65784840389528151610e978582610dca565b9450610ea28361121b565b925060208a01995050600181019050610e7e565b50829750879550505050505092915050565b610ed181611266565b82525050565b6000610ee282611203565b610eec818561125b565b9350610efc818560208601611281565b80840191505092915050565b6000610f13826111f8565b610f1d818561124a565b9350610f2d818560208601611281565b610f36816112b4565b840191505092915050565b600081546001811660008114610f5e5760018114610f8357610fc7565b607f6002830416610f6f818761125b565b955060ff1983168652808601935050610fc7565b60028204610f91818761125b565b9550610f9c856111cd565b60005b82811015610fbe57815481890152600182019150602081019050610f9f565b82880195505050505b505092915050565b600060e0830160008301518482036000860152610fec8282610f08565b915050602083015184820360208601526110068282610f08565b915050604083015184820360408601526110208282610f08565b9150506060830151848203606086015261103a8282610f08565b915050608083015184820360808601526110548282610f08565b91505060a083015184820360a086015261106e8282610dde565b91505060c083015184820360c08601526110888282610dde565b9150508091505092915050565b60006110a18284610ed7565b915081905092915050565b60006110b88284610f41565b915081905092915050565b600060208201905081810360008301526110dd8184610e53565b905092915050565b60006020820190506110fa6000830184610ec8565b92915050565b6000604051905081810181811067ffffffffffffffff8211171561112357600080fd5b8060405250919050565b600067ffffffffffffffff82111561114457600080fd5b602082029050602081019050919050565b600067ffffffffffffffff82111561116c57600080fd5b601f19601f8301169050602081019050919050565b600067ffffffffffffffff82111561119857600080fd5b601f19601f8301169050602081019050919050565b6000819050602082019050919050565b6000819050602082019050919050565b60008190508160005260206000209050919050565b600081519050919050565b600081519050919050565b600081519050919050565b600081519050919050565b6000602082019050919050565b6000602082019050919050565b600082825260208201905092915050565b600082825260208201905092915050565b600082825260208201905092915050565b600081905092915050565b60008115159050919050565b82818337600083830152505050565b60005b8381101561129f578082015181840152602081019050611284565b838111156112ae576000848401525b50505050565b6000601f19601f830116905091905056fea26469706673582212200798dba98a7364026632bd2e78b4347142c234601ee8f704db520d7a67040d7164736f6c63430006010033",
  "source": "//SPDX-License-Identifier: MIT\npragma solidity >=0.5.0 <0.7.0;\npragma experimental ABIEncoderV2;\n\ncontract LegitContractV2 {\n\n    struct Certificacion {\n        string id_certificacion;\n        string nombre_responsable;\n        string nombre_certificacion;\n        string fecha;\n        string cantidad_documentos;\n        string[] documentos_hash;\n        string[] documentos_nombre;\n    }\n\n    mapping(string => Certificacion[]) private certificaciones;\n\n    string[] private documentos;\n    address private admin;\n\n    constructor() public {\n        admin = msg.sender;\n    }\n\n    modifier onlyAdmin() {\n        require(\n            msg.sender == admin,\n            \"Only admin can call this.\"\n        );\n        _;\n    }\n\n    function certifica(\n        string memory _id_cert,\n        string memory _user_name,\n        string memory _user_email,\n        string memory _fecha,\n        string memory _cert_name,\n        string memory _n_doc,\n        string[] memory _docs_hash,\n        string[] memory _docs_nombre\n        )\n    public {\n\n        string[] memory arreglo_hash_doc = _docs_hash;\n        string[] memory arreglo_nombre_doc = _docs_nombre;\n\n        for (uint i = 0; i < arreglo_hash_doc.length; i++) {\n            documentos.push(arreglo_hash_doc[i]);\n        }\n\n        Certificacion memory _nueva_cert = Certificacion({\n            id_certificacion: _id_cert,\n            nombre_responsable: _user_name,\n            fecha: _fecha,\n            nombre_certificacion: _cert_name,\n            cantidad_documentos: _n_doc,\n            documentos_hash: arreglo_hash_doc,\n            documentos_nombre: arreglo_nombre_doc\n        });\n\n        certificaciones[_user_email].push(_nueva_cert);\n    }\n\n    function valida(string memory _document_hash) public view returns (bool) {\n\n        for (uint i = 0; i < documentos.length; i++) {\n            if(keccak256(abi.encodePacked(documentos[i])) == keccak256(abi.encodePacked(_document_hash))) {\n                return true;\n            }\n        }\n\n        return false;\n    }\n\n    function busca(string memory _user_email) public view returns (Certificacion[] memory) {\n        return certificaciones[_user_email];\n    }\n}",
  "sourcePath": "/home/carlos/contratos/legit-contract-insert-document/contracts/LegitContractV2.sol",
  "compiler": {
    "name": "solc",
    "version": "0.6.1+commit.e6f7d5a4.Emscripten.clang"
  },
  "schemaVersion": "3.2.2",
  "updatedAt": "2020-07-22T15:34:17.878Z",
  "networkType": "ethereum",
  "devdoc": {
    "methods": {}
  },
  "userdoc": {
    "methods": {}
  }
}