{
  "contractName": "LegitContractV2",
  "abi": [
    {
      "inputs": [],
      "stateMutability": "nonpayable",
      "type": "constructor"
    },
    {
      "inputs": [
        {
          "internalType": "string",
          "name": "_id_cert",
          "type": "string"
        },
        {
          "internalType": "string",
          "name": "_user_name",
          "type": "string"
        },
        {
          "internalType": "string",
          "name": "_user_email",
          "type": "string"
        },
        {
          "internalType": "string",
          "name": "_fecha",
          "type": "string"
        },
        {
          "internalType": "string",
          "name": "_cert_name",
          "type": "string"
        },
        {
          "internalType": "string",
          "name": "_n_doc",
          "type": "string"
        },
        {
          "internalType": "string[]",
          "name": "_docs_hash",
          "type": "string[]"
        },
        {
          "internalType": "string[]",
          "name": "_docs_nombre",
          "type": "string[]"
        }
      ],
      "name": "certifica",
      "outputs": [],
      "stateMutability": "nonpayable",
      "type": "function"
    },
    {
      "inputs": [
        {
          "internalType": "string",
          "name": "_document_hash",
          "type": "string"
        }
      ],
      "name": "valida",
      "outputs": [
        {
          "internalType": "bool",
          "name": "",
          "type": "bool"
        }
      ],
      "stateMutability": "view",
      "type": "function",
      "constant": true
    },
    {
      "inputs": [
        {
          "internalType": "string",
          "name": "_document_hash",
          "type": "string"
        }
      ],
      "name": "trae",
      "outputs": [
        {
          "components": [
            {
              "internalType": "string",
              "name": "id_certificacion",
              "type": "string"
            },
            {
              "internalType": "string",
              "name": "nombre_responsable",
              "type": "string"
            },
            {
              "internalType": "string",
              "name": "nombre_certificacion",
              "type": "string"
            },
            {
              "internalType": "string",
              "name": "fecha",
              "type": "string"
            },
            {
              "internalType": "string",
              "name": "cantidad_documentos",
              "type": "string"
            },
            {
              "internalType": "string[]",
              "name": "documentos_hash",
              "type": "string[]"
            },
            {
              "internalType": "string[]",
              "name": "documentos_nombre",
              "type": "string[]"
            }
          ],
          "internalType": "struct LegitContractV2.Certificacion[]",
          "name": "",
          "type": "tuple[]"
        }
      ],
      "stateMutability": "view",
      "type": "function",
      "constant": true
    },
    {
      "inputs": [
        {
          "internalType": "string",
          "name": "_user_email",
          "type": "string"
        }
      ],
      "name": "busca",
      "outputs": [
        {
          "components": [
            {
              "internalType": "string",
              "name": "id_certificacion",
              "type": "string"
            },
            {
              "internalType": "string",
              "name": "nombre_responsable",
              "type": "string"
            },
            {
              "internalType": "string",
              "name": "nombre_certificacion",
              "type": "string"
            },
            {
              "internalType": "string",
              "name": "fecha",
              "type": "string"
            },
            {
              "internalType": "string",
              "name": "cantidad_documentos",
              "type": "string"
            },
            {
              "internalType": "string[]",
              "name": "documentos_hash",
              "type": "string[]"
            },
            {
              "internalType": "string[]",
              "name": "documentos_nombre",
              "type": "string[]"
            }
          ],
          "internalType": "struct LegitContractV2.Certificacion[]",
          "name": "",
          "type": "tuple[]"
        }
      ],
      "stateMutability": "view",
      "type": "function",
      "constant": true
    }
  ],
  "bytecode": "0x608060405234801561001057600080fd5b5033600460006101000a81548173ffffffffffffffffffffffffffffffffffffffff021916908373ffffffffffffffffffffffffffffffffffffffff160217905550611ac7806100616000396000f3fe608060405234801561001057600080fd5b506004361061004c5760003560e01c806321b81626146100515780635a16501a14610081578063df0d9701146100b1578063f1be8e03146100cd575b600080fd5b61006b60048036036100669190810190611387565b6100fd565b604051610078919061188f565b60405180910390f35b61009b60048036036100969190810190611387565b610676565b6040516100a891906118b1565b60405180910390f35b6100cb60048036036100c691908101906113c8565b610717565b005b6100e760048036036100e29190810190611387565b610a47565b6040516100f4919061188f565b60405180910390f35b606060008260405161010f9190611861565b9081526020016040518091039020805480602002602001604051908101604052809291908181526020016000905b8282101561066b57838290600052602060002090600702016040518060e0016040529081600082018054600181600116156101000203166002900480601f0160208091040260200160405190810160405280929190818152602001828054600181600116156101000203166002900480156101f95780601f106101ce576101008083540402835291602001916101f9565b820191906000526020600020905b8154815290600101906020018083116101dc57829003601f168201915b50505050508152602001600182018054600181600116156101000203166002900480601f01602080910402602001604051908101604052809291908181526020018280546001816001161561010002031660029004801561029b5780601f106102705761010080835404028352916020019161029b565b820191906000526020600020905b81548152906001019060200180831161027e57829003601f168201915b50505050508152602001600282018054600181600116156101000203166002900480601f01602080910402602001604051908101604052809291908181526020018280546001816001161561010002031660029004801561033d5780601f106103125761010080835404028352916020019161033d565b820191906000526020600020905b81548152906001019060200180831161032057829003601f168201915b50505050508152602001600382018054600181600116156101000203166002900480601f0160208091040260200160405190810160405280929190818152602001828054600181600116156101000203166002900480156103df5780601f106103b4576101008083540402835291602001916103df565b820191906000526020600020905b8154815290600101906020018083116103c257829003601f168201915b50505050508152602001600482018054600181600116156101000203166002900480601f0160208091040260200160405190810160405280929190818152602001828054600181600116156101000203166002900480156104815780601f1061045657610100808354040283529160200191610481565b820191906000526020600020905b81548152906001019060200180831161046457829003601f168201915b5050505050815260200160058201805480602002602001604051908101604052809291908181526020016000905b8282101561056b578382906000526020600020018054600181600116156101000203166002900480601f0160208091040260200160405190810160405280929190818152602001828054600181600116156101000203166002900480156105575780601f1061052c57610100808354040283529160200191610557565b820191906000526020600020905b81548152906001019060200180831161053a57829003601f168201915b5050505050815260200190600101906104af565b50505050815260200160068201805480602002602001604051908101604052809291908181526020016000905b82821015610654578382906000526020600020018054600181600116156101000203166002900480601f0160208091040260200160405190810160405280929190818152602001828054600181600116156101000203166002900480156106405780601f1061061557610100808354040283529160200191610640565b820191906000526020600020905b81548152906001019060200180831161062357829003601f168201915b505050505081526020019060010190610598565b50505050815250508152602001906001019061013d565b505050509050919050565b600080600090505b60038054905081101561070c578260405160200161069c9190611861565b60405160208183030381529060405280519060200120600382815481106106bf57fe5b906000526020600020016040516020016106d99190611878565b6040516020818303038152906040528051906020012014156106ff576001915050610712565b808060010191505061067e565b50600090505b919050565b6060829050606082905060008090505b82518110156107d257600383828151811061073e57fe5b602002602001015190806001815401808255809150506001900390600052602060002001600090919091909150908051906020019061077e929190611035565b508a600284838151811061078e57fe5b60200260200101516040516107a3919061184a565b908152602001604051809103902090805190602001906107c4929190611035565b508080600101915050610727565b506107db6110b5565b6040518060e001604052808c81526020018b815260200188815260200189815260200187815260200184815260200183815250905060018b6040516108209190611861565b908152602001604051809103902081908060018154018082558091505060019003906000526020600020906007020160009091909190915060008201518160000190805190602001906108749291906110f2565b5060208201518160010190805190602001906108919291906110f2565b5060408201518160020190805190602001906108ae9291906110f2565b5060608201518160030190805190602001906108cb9291906110f2565b5060808201518160040190805190602001906108e89291906110f2565b5060a0820151816005019080519060200190610905929190611172565b5060c0820151816006019080519060200190610922929190611172565b5050506000896040516109359190611861565b908152602001604051809103902081908060018154018082558091505060019003906000526020600020906007020160009091909190915060008201518160000190805190602001906109899291906110f2565b5060208201518160010190805190602001906109a69291906110f2565b5060408201518160020190805190602001906109c39291906110f2565b5060608201518160030190805190602001906109e09291906110f2565b5060808201518160040190805190602001906109fd9291906110f2565b5060a0820151816005019080519060200190610a1a929190611172565b5060c0820151816006019080519060200190610a37929190611172565b5050505050505050505050505050565b60606000600283604051610a5b9190611861565b9081526020016040518091039020604051602001610a799190611878565b6040516020818303038152906040528051906020012050602060ff16111561102f576001600283604051610aad9190611861565b9081526020016040518091039020604051610ac89190611878565b9081526020016040518091039020805480602002602001604051908101604052809291908181526020016000905b8282101561102457838290600052602060002090600702016040518060e0016040529081600082018054600181600116156101000203166002900480601f016020809104026020016040519081016040528092919081815260200182805460018160011615610100020316600290048015610bb25780601f10610b8757610100808354040283529160200191610bb2565b820191906000526020600020905b815481529060010190602001808311610b9557829003601f168201915b50505050508152602001600182018054600181600116156101000203166002900480601f016020809104026020016040519081016040528092919081815260200182805460018160011615610100020316600290048015610c545780601f10610c2957610100808354040283529160200191610c54565b820191906000526020600020905b815481529060010190602001808311610c3757829003601f168201915b50505050508152602001600282018054600181600116156101000203166002900480601f016020809104026020016040519081016040528092919081815260200182805460018160011615610100020316600290048015610cf65780601f10610ccb57610100808354040283529160200191610cf6565b820191906000526020600020905b815481529060010190602001808311610cd957829003601f168201915b50505050508152602001600382018054600181600116156101000203166002900480601f016020809104026020016040519081016040528092919081815260200182805460018160011615610100020316600290048015610d985780601f10610d6d57610100808354040283529160200191610d98565b820191906000526020600020905b815481529060010190602001808311610d7b57829003601f168201915b50505050508152602001600482018054600181600116156101000203166002900480601f016020809104026020016040519081016040528092919081815260200182805460018160011615610100020316600290048015610e3a5780601f10610e0f57610100808354040283529160200191610e3a565b820191906000526020600020905b815481529060010190602001808311610e1d57829003601f168201915b5050505050815260200160058201805480602002602001604051908101604052809291908181526020016000905b82821015610f24578382906000526020600020018054600181600116156101000203166002900480601f016020809104026020016040519081016040528092919081815260200182805460018160011615610100020316600290048015610f105780601f10610ee557610100808354040283529160200191610f10565b820191906000526020600020905b815481529060010190602001808311610ef357829003601f168201915b505050505081526020019060010190610e68565b50505050815260200160068201805480602002602001604051908101604052809291908181526020016000905b8282101561100d578382906000526020600020018054600181600116156101000203166002900480601f016020809104026020016040519081016040528092919081815260200182805460018160011615610100020316600290048015610ff95780601f10610fce57610100808354040283529160200191610ff9565b820191906000526020600020905b815481529060010190602001808311610fdc57829003601f168201915b505050505081526020019060010190610f51565b505050508152505081526020019060010190610af6565b505050509050611030565b5b919050565b828054600181600116156101000203166002900490600052602060002090601f016020900481019282601f1061107657805160ff19168380011785556110a4565b828001600101855582156110a4579182015b828111156110a3578251825591602001919060010190611088565b5b5090506110b191906111d2565b5090565b6040518060e00160405280606081526020016060815260200160608152602001606081526020016060815260200160608152602001606081525090565b828054600181600116156101000203166002900490600052602060002090601f016020900481019282601f1061113357805160ff1916838001178555611161565b82800160010185558215611161579182015b82811115611160578251825591602001919060010190611145565b5b50905061116e91906111d2565b5090565b8280548282559060005260206000209081019282156111c1579160200282015b828111156111c05782518290805190602001906111b09291906110f2565b5091602001919060010190611192565b5b5090506111ce91906111f7565b5090565b6111f491905b808211156111f05760008160009055506001016111d8565b5090565b90565b61122091905b8082111561121c57600081816112139190611223565b506001016111fd565b5090565b90565b50805460018160011615610100020316600290046000825580601f106112495750611268565b601f01602090049060005260206000209081019061126791906111d2565b5b50565b600082601f83011261127c57600080fd5b813561128f61128a826118f9565b6118cc565b9150818183526020840193506020810190508360005b838110156112d557813586016112bb88826112df565b8452602084019350602083019250506001810190506112a5565b5050505092915050565b600082601f8301126112f057600080fd5b81356113036112fe82611921565b6118cc565b9150808252602083016020830185838301111561131f57600080fd5b61132a838284611a3e565b50505092915050565b600082601f83011261134457600080fd5b81356113576113528261194d565b6118cc565b9150808252602083016020830185838301111561137357600080fd5b61137e838284611a3e565b50505092915050565b60006020828403121561139957600080fd5b600082013567ffffffffffffffff8111156113b357600080fd5b6113bf84828501611333565b91505092915050565b600080600080600080600080610100898b0312156113e557600080fd5b600089013567ffffffffffffffff8111156113ff57600080fd5b61140b8b828c01611333565b985050602089013567ffffffffffffffff81111561142857600080fd5b6114348b828c01611333565b975050604089013567ffffffffffffffff81111561145157600080fd5b61145d8b828c01611333565b965050606089013567ffffffffffffffff81111561147a57600080fd5b6114868b828c01611333565b955050608089013567ffffffffffffffff8111156114a357600080fd5b6114af8b828c01611333565b94505060a089013567ffffffffffffffff8111156114cc57600080fd5b6114d88b828c01611333565b93505060c089013567ffffffffffffffff8111156114f557600080fd5b6115018b828c0161126b565b92505060e089013567ffffffffffffffff81111561151e57600080fd5b61152a8b828c0161126b565b9150509295985092959890939650565b6000611546838361168c565b905092915050565b600061155a8383611784565b905092915050565b600061156d826119ae565b61157781856119f4565b93508360208202850161158985611979565b8060005b858110156115c557848403895281516115a6858261153a565b94506115b1836119da565b925060208a0199505060018101905061158d565b50829750879550505050505092915050565b60006115e2826119b9565b6115ec8185611a05565b9350836020820285016115fe85611989565b8060005b8581101561163a578484038952815161161b858261154e565b9450611626836119e7565b925060208a01995050600181019050611602565b50829750879550505050505092915050565b61165581611a32565b82525050565b6000611666826119cf565b6116708185611a27565b9350611680818560208601611a4d565b80840191505092915050565b6000611697826119c4565b6116a18185611a16565b93506116b1818560208601611a4d565b6116ba81611a80565b840191505092915050565b60006116d0826119c4565b6116da8185611a27565b93506116ea818560208601611a4d565b80840191505092915050565b60008154600181166000811461171357600181146117385761177c565b607f60028304166117248187611a27565b955060ff198316865280860193505061177c565b600282046117468187611a27565b955061175185611999565b60005b8281101561177357815481890152600182019150602081019050611754565b82880195505050505b505092915050565b600060e08301600083015184820360008601526117a1828261168c565b915050602083015184820360208601526117bb828261168c565b915050604083015184820360408601526117d5828261168c565b915050606083015184820360608601526117ef828261168c565b91505060808301518482036080860152611809828261168c565b91505060a083015184820360a08601526118238282611562565b91505060c083015184820360c086015261183d8282611562565b9150508091505092915050565b600061185682846116c5565b915081905092915050565b600061186d828461165b565b915081905092915050565b600061188482846116f6565b915081905092915050565b600060208201905081810360008301526118a981846115d7565b905092915050565b60006020820190506118c6600083018461164c565b92915050565b6000604051905081810181811067ffffffffffffffff821117156118ef57600080fd5b8060405250919050565b600067ffffffffffffffff82111561191057600080fd5b602082029050602081019050919050565b600067ffffffffffffffff82111561193857600080fd5b601f19601f8301169050602081019050919050565b600067ffffffffffffffff82111561196457600080fd5b601f19601f8301169050602081019050919050565b6000819050602082019050919050565b6000819050602082019050919050565b60008190508160005260206000209050919050565b600081519050919050565b600081519050919050565b600081519050919050565b600081519050919050565b6000602082019050919050565b6000602082019050919050565b600082825260208201905092915050565b600082825260208201905092915050565b600082825260208201905092915050565b600081905092915050565b60008115159050919050565b82818337600083830152505050565b60005b83811015611a6b578082015181840152602081019050611a50565b83811115611a7a576000848401525b50505050565b6000601f19601f830116905091905056fea264697066735822122025ac15a47d19e5bf9bc192f2171825a207dafc7aa80acc115870043bc766fc8a64736f6c63430006010033",
  "source": "//SPDX-License-Identifier: MIT\npragma solidity >=0.5.0 <0.7.0;\npragma experimental ABIEncoderV2;\n\ncontract LegitContractV2 {\n\n    struct Certificacion {\n        string id_certificacion;\n        string nombre_responsable;\n        string nombre_certificacion;\n        string fecha;\n        string cantidad_documentos;\n        string[] documentos_hash;\n        string[] documentos_nombre;\n    }\n\n    mapping(string => Certificacion[]) private certificaciones;\n\n    mapping(string => Certificacion[]) private certificaciones_clientes;\n\n    mapping(string => string) private certificaciones_documentos;\n\n    string[] private documentos;\n    address private admin;\n\n    constructor() public {\n        admin = msg.sender;\n    }\n\n    modifier onlyAdmin() {\n        require(\n            msg.sender == admin,\n            \"Only admin can call this.\"\n        );\n        _;\n    }\n\n    function certifica(\n        string memory _id_cert,\n        string memory _user_name,\n        string memory _user_email,\n        string memory _fecha,\n        string memory _cert_name,\n        string memory _n_doc,\n        string[] memory _docs_hash,\n        string[] memory _docs_nombre\n        )\n    public {\n\n        string[] memory arreglo_hash_doc = _docs_hash;\n        string[] memory arreglo_nombre_doc = _docs_nombre;\n\n        for (uint i = 0; i < arreglo_hash_doc.length; i++) {\n            documentos.push(arreglo_hash_doc[i]);\n            certificaciones_documentos[arreglo_hash_doc[i]] = _id_cert;\n        }\n\n        Certificacion memory _nueva_cert = Certificacion({\n            id_certificacion: _id_cert,\n            nombre_responsable: _user_name,\n            fecha: _fecha,\n            nombre_certificacion: _cert_name,\n            cantidad_documentos: _n_doc,\n            documentos_hash: arreglo_hash_doc,\n            documentos_nombre: arreglo_nombre_doc\n        });\n\n        certificaciones_clientes[_id_cert].push(_nueva_cert);\n        certificaciones[_user_email].push(_nueva_cert);\n    }\n\n    function valida(string memory _document_hash) public view returns (bool) {\n\n        for (uint i = 0; i < documentos.length; i++) {\n            if(keccak256(abi.encodePacked(documentos[i])) == keccak256(abi.encodePacked(_document_hash))) {\n                return true;\n            }\n        }\n\n        return false;\n    }\n\n    function trae(string memory _document_hash) public view returns (Certificacion[] memory) {\n\n        if(keccak256(abi.encodePacked(certificaciones_documentos[_document_hash])).length > 0) {\n            return certificaciones_clientes[certificaciones_documentos[_document_hash]];\n        }\n    }\n\n\n\n    function busca(string memory _user_email) public view returns (Certificacion[] memory) {\n        return certificaciones[_user_email];\n    }\n}",
  "sourcePath": "/home/carlos/contratos/legit-contract-insert-document/contracts/LegitContractV2.sol",
  "compiler": {
    "name": "solc",
    "version": "0.6.1+commit.e6f7d5a4.Emscripten.clang"
  },
  "schemaVersion": "3.2.2",
  "updatedAt": "2020-07-23T20:42:11.790Z",
  "networkType": "ethereum",
  "devdoc": {
    "methods": {}
  },
  "userdoc": {
    "methods": {}
  }
}