{
  "contractName": "LegitAlmacenamiento",
  "abi": [
    {
      "inputs": [],
      "stateMutability": "nonpayable",
      "type": "constructor"
    },
    {
      "inputs": [
        {
          "internalType": "string",
          "name": "",
          "type": "string"
        },
        {
          "internalType": "uint256",
          "name": "",
          "type": "uint256"
        }
      ],
      "name": "notas",
      "outputs": [
        {
          "internalType": "string",
          "name": "",
          "type": "string"
        }
      ],
      "stateMutability": "view",
      "type": "function",
      "constant": true
    },
    {
      "inputs": [
        {
          "internalType": "string",
          "name": "_user",
          "type": "string"
        },
        {
          "internalType": "string",
          "name": "_nota",
          "type": "string"
        }
      ],
      "name": "escribir",
      "outputs": [],
      "stateMutability": "nonpayable",
      "type": "function"
    },
    {
      "inputs": [
        {
          "internalType": "string",
          "name": "_user",
          "type": "string"
        }
      ],
      "name": "leer",
      "outputs": [
        {
          "internalType": "string[]",
          "name": "",
          "type": "string[]"
        }
      ],
      "stateMutability": "view",
      "type": "function",
      "constant": true
    },
    {
      "inputs": [
        {
          "internalType": "string",
          "name": "_user",
          "type": "string"
        },
        {
          "internalType": "string",
          "name": "_nota",
          "type": "string"
        }
      ],
      "name": "borrar",
      "outputs": [
        {
          "internalType": "string[]",
          "name": "",
          "type": "string[]"
        }
      ],
      "stateMutability": "nonpayable",
      "type": "function"
    },
    {
      "inputs": [
        {
          "internalType": "string",
          "name": "_user",
          "type": "string"
        }
      ],
      "name": "total",
      "outputs": [
        {
          "internalType": "uint256",
          "name": "",
          "type": "uint256"
        }
      ],
      "stateMutability": "view",
      "type": "function",
      "constant": true
    }
  ],
  "bytecode": "0x608060405234801561001057600080fd5b50336000806101000a81548173ffffffffffffffffffffffffffffffffffffffff021916908373ffffffffffffffffffffffffffffffffffffffff160217905550610d5d806100606000396000f3fe608060405234801561001057600080fd5b50600436106100575760003560e01c80632be306951461005c5780634773bc3d1461008c578063bfc3e88a146100bc578063d7075e93146100d8578063e9c55dda14610108575b600080fd5b61007660048036036100719190810190610893565b610138565b6040516100839190610b40565b60405180910390f35b6100a660048036036100a191908101906107e6565b610214565b6040516100b39190610b1e565b60405180910390f35b6100d660048036036100d19190810190610827565b61031b565b005b6100f260048036036100ed9190810190610827565b610377565b6040516100ff9190610b1e565b60405180910390f35b610122600480360361011d91908101906107e6565b610611565b60405161012f9190610b82565b60405180910390f35b600182805160208101820180518482526020830160208501208183528095505050505050818154811061016757fe5b90600052602060002001600091509150508054600181600116156101000203166002900480601f01602080910402602001604051908101604052809291908181526020018280546001816001161561010002031660029004801561020c5780601f106101e15761010080835404028352916020019161020c565b820191906000526020600020905b8154815290600101906020018083116101ef57829003601f168201915b505050505081565b60606001826040516102269190610af0565b9081526020016040518091039020805480602002602001604051908101604052809291908181526020016000905b82821015610310578382906000526020600020018054600181600116156101000203166002900480601f0160208091040260200160405190810160405280929190818152602001828054600181600116156101000203166002900480156102fc5780601f106102d1576101008083540402835291602001916102fc565b820191906000526020600020905b8154815290600101906020018083116102df57829003601f168201915b505050505081526020019060010190610254565b505050509050919050565b60018260405161032b9190610af0565b90815260200160405180910390208190806001815401808255809150506001900390600052602060002001600090919091909150908051906020019061037292919061063c565b505050565b60606000809054906101000a900473ffffffffffffffffffffffffffffffffffffffff1673ffffffffffffffffffffffffffffffffffffffff163373ffffffffffffffffffffffffffffffffffffffff1614610408576040517f08c379a00000000000000000000000000000000000000000000000000000000081526004016103ff90610b62565b60405180910390fd5b60008090505b60018460405161041e9190610af0565b90815260200160405180910390208054905081101561050a57826040516020016104489190610af0565b6040516020818303038152906040528051906020012060018560405161046e9190610af0565b9081526020016040518091039020828154811061048757fe5b906000526020600020016040516020016104a19190610b07565b6040516020818303038152906040528051906020012014156104fd576001846040516104cd9190610af0565b908152602001604051809103902081815481106104e657fe5b9060005260206000200160006104fc91906106bc565b5b808060010191505061040e565b5060018360405161051b9190610af0565b9081526020016040518091039020805480602002602001604051908101604052809291908181526020016000905b82821015610605578382906000526020600020018054600181600116156101000203166002900480601f0160208091040260200160405190810160405280929190818152602001828054600181600116156101000203166002900480156105f15780601f106105c6576101008083540402835291602001916105f1565b820191906000526020600020905b8154815290600101906020018083116105d457829003601f168201915b505050505081526020019060010190610549565b50505050905092915050565b60006001826040516106239190610af0565b9081526020016040518091039020805490509050919050565b828054600181600116156101000203166002900490600052602060002090601f016020900481019282601f1061067d57805160ff19168380011785556106ab565b828001600101855582156106ab579182015b828111156106aa57825182559160200191906001019061068f565b5b5090506106b89190610704565b5090565b50805460018160011615610100020316600290046000825580601f106106e25750610701565b601f0160209004906000526020600020908101906107009190610704565b5b50565b61072691905b8082111561072257600081600090555060010161070a565b5090565b90565b600082601f83011261073a57600080fd5b813561074d61074882610bca565b610b9d565b9150808252602083016020830185838301111561076957600080fd5b610774838284610cbd565b50505092915050565b600082601f83011261078e57600080fd5b81356107a161079c82610bf6565b610b9d565b915080825260208301602083018583830111156107bd57600080fd5b6107c8838284610cbd565b50505092915050565b6000813590506107e081610d10565b92915050565b6000602082840312156107f857600080fd5b600082013567ffffffffffffffff81111561081257600080fd5b61081e8482850161077d565b91505092915050565b6000806040838503121561083a57600080fd5b600083013567ffffffffffffffff81111561085457600080fd5b6108608582860161077d565b925050602083013567ffffffffffffffff81111561087d57600080fd5b6108898582860161077d565b9150509250929050565b600080604083850312156108a657600080fd5b600083013567ffffffffffffffff8111156108c057600080fd5b6108cc85828601610729565b92505060206108dd858286016107d1565b9150509250929050565b60006108f383836109a1565b905092915050565b600061090682610c47565b6109108185610c75565b93508360208202850161092285610c22565b8060005b8581101561095e578484038952815161093f85826108e7565b945061094a83610c68565b925060208a01995050600181019050610926565b50829750879550505050505092915050565b600061097b82610c5d565b6109858185610ca8565b9350610995818560208601610ccc565b80840191505092915050565b60006109ac82610c52565b6109b68185610c86565b93506109c6818560208601610ccc565b6109cf81610cff565b840191505092915050565b60006109e582610c52565b6109ef8185610c97565b93506109ff818560208601610ccc565b610a0881610cff565b840191505092915050565b600081546001811660008114610a305760018114610a5557610a99565b607f6002830416610a418187610ca8565b955060ff1983168652808601935050610a99565b60028204610a638187610ca8565b9550610a6e85610c32565b60005b82811015610a9057815481890152600182019150602081019050610a71565b82880195505050505b505092915050565b6000610aae601983610c97565b91507f4f6e6c792061646d696e2063616e2063616c6c20746869732e000000000000006000830152602082019050919050565b610aea81610cb3565b82525050565b6000610afc8284610970565b915081905092915050565b6000610b138284610a13565b915081905092915050565b60006020820190508181036000830152610b3881846108fb565b905092915050565b60006020820190508181036000830152610b5a81846109da565b905092915050565b60006020820190508181036000830152610b7b81610aa1565b9050919050565b6000602082019050610b976000830184610ae1565b92915050565b6000604051905081810181811067ffffffffffffffff82111715610bc057600080fd5b8060405250919050565b600067ffffffffffffffff821115610be157600080fd5b601f19601f8301169050602081019050919050565b600067ffffffffffffffff821115610c0d57600080fd5b601f19601f8301169050602081019050919050565b6000819050602082019050919050565b60008190508160005260206000209050919050565b600081519050919050565b600081519050919050565b600081519050919050565b6000602082019050919050565b600082825260208201905092915050565b600082825260208201905092915050565b600082825260208201905092915050565b600081905092915050565b6000819050919050565b82818337600083830152505050565b60005b83811015610cea578082015181840152602081019050610ccf565b83811115610cf9576000848401525b50505050565b6000601f19601f8301169050919050565b610d1981610cb3565b8114610d2457600080fd5b5056fea26469706673582212204f1cbf3496ed6333ad0569bb9464e2cf30ff55052ff127ffb7498121c1608c5064736f6c63430006010033",
  "source": "//SPDX-License-Identifier: MIT\npragma solidity >=0.5.0 <0.7.0;\npragma experimental ABIEncoderV2;\n\ncontract LegitAlmacenamiento {\n\n    address private admin;\n\n    mapping(string => string[]) public notas;\n\n    constructor() public {\n        admin = msg.sender;\n    }\n\n    modifier onlyAdmin() {\n        require(\n            msg.sender == admin,\n            \"Only admin can call this.\"\n        );\n        _;\n    }\n\n    function escribir( string memory _user, string memory _nota) public {\n        notas[_user].push(_nota);\n    }\n\n    function leer( string memory _user) public view returns (string[] memory){\n        return notas[_user];\n    }\n\n    function borrar(string memory _user, string memory _nota) public onlyAdmin returns(string[] memory) {\n\n        for (uint i = 0; i < notas[_user].length; i++) {\n            if(keccak256(abi.encodePacked(notas[_user][i])) == keccak256(abi.encodePacked(_nota))) {\n                delete notas[_user][i];\n            }\n        }\n\n        return notas[_user];\n    }\n\n    function total( string memory _user) public view returns(uint) {\n        return notas[_user].length;\n    }\n}",
  "sourcePath": "/home/carlos/contratos/legit-contract-insert-document/contracts/LegitAlmacenamiento.sol",
  "compiler": {
    "name": "solc",
    "version": "0.6.1+commit.e6f7d5a4.Emscripten.clang"
  },
  "schemaVersion": "3.2.2",
  "updatedAt": "2020-07-23T20:40:11.455Z",
  "networkType": "ethereum",
  "devdoc": {
    "methods": {}
  },
  "userdoc": {
    "methods": {}
  }
}